{
  "contractName": "Patient",
  "abi": [
    {
      "inputs": [],
      "stateMutability": "nonpayable",
      "type": "constructor"
    },
    {
      "inputs": [
        {
          "internalType": "address",
          "name": "",
          "type": "address"
        },
        {
          "internalType": "uint256",
          "name": "",
          "type": "uint256"
        }
      ],
      "name": "doctors",
      "outputs": [
        {
          "internalType": "address",
          "name": "doctorAcc",
          "type": "address"
        },
        {
          "internalType": "string",
          "name": "docName",
          "type": "string"
        }
      ],
      "stateMutability": "view",
      "type": "function",
      "constant": true
    },
    {
      "inputs": [
        {
          "internalType": "address",
          "name": "",
          "type": "address"
        },
        {
          "internalType": "uint256",
          "name": "",
          "type": "uint256"
        }
      ],
      "name": "files",
      "outputs": [
        {
          "internalType": "string",
          "name": "fileName",
          "type": "string"
        },
        {
          "internalType": "string",
          "name": "fileHash",
          "type": "string"
        },
        {
          "internalType": "string",
          "name": "datetime",
          "type": "string"
        }
      ],
      "stateMutability": "view",
      "type": "function",
      "constant": true
    },
    {
      "inputs": [
        {
          "internalType": "address",
          "name": "",
          "type": "address"
        }
      ],
      "name": "patients",
      "outputs": [
        {
          "internalType": "address",
          "name": "id",
          "type": "address"
        },
        {
          "internalType": "string",
          "name": "name",
          "type": "string"
        },
        {
          "internalType": "string",
          "name": "contact",
          "type": "string"
        },
        {
          "internalType": "string",
          "name": "email",
          "type": "string"
        },
        {
          "internalType": "uint256",
          "name": "fileCount",
          "type": "uint256"
        },
        {
          "internalType": "uint256",
          "name": "doctorCount",
          "type": "uint256"
        },
        {
          "internalType": "uint256",
          "name": "pharmacistCount",
          "type": "uint256"
        }
      ],
      "stateMutability": "view",
      "type": "function",
      "constant": true
    },
    {
      "inputs": [
        {
          "internalType": "address",
          "name": "",
          "type": "address"
        },
        {
          "internalType": "uint256",
          "name": "",
          "type": "uint256"
        }
      ],
      "name": "pharmacists",
      "outputs": [
        {
          "internalType": "address",
          "name": "pharmacistAcc",
          "type": "address"
        },
        {
          "internalType": "string",
          "name": "pharName",
          "type": "string"
        }
      ],
      "stateMutability": "view",
      "type": "function",
      "constant": true
    },
    {
      "inputs": [
        {
          "internalType": "address",
          "name": "_id",
          "type": "address"
        },
        {
          "internalType": "string",
          "name": "_name",
          "type": "string"
        },
        {
          "internalType": "string",
          "name": "_contact",
          "type": "string"
        },
        {
          "internalType": "string",
          "name": "_email",
          "type": "string"
        }
      ],
      "name": "addPatient",
      "outputs": [],
      "stateMutability": "nonpayable",
      "type": "function"
    },
    {
      "inputs": [
        {
          "internalType": "string",
          "name": "_fname",
          "type": "string"
        },
        {
          "internalType": "string",
          "name": "_fhash",
          "type": "string"
        },
        {
          "internalType": "string",
          "name": "_datetime",
          "type": "string"
        }
      ],
      "name": "saveFile",
      "outputs": [],
      "stateMutability": "nonpayable",
      "type": "function"
    },
    {
      "inputs": [
        {
          "internalType": "string",
          "name": "_docName",
          "type": "string"
        },
        {
          "internalType": "address",
          "name": "_doctorAcc",
          "type": "address"
        }
      ],
      "name": "saveDoctor",
      "outputs": [],
      "stateMutability": "nonpayable",
      "type": "function"
    },
    {
      "inputs": [
        {
          "internalType": "string",
          "name": "_pharmacistName",
          "type": "string"
        },
        {
          "internalType": "address",
          "name": "_pharmacistAcc",
          "type": "address"
        }
      ],
      "name": "savePharmacist",
      "outputs": [],
      "stateMutability": "nonpayable",
      "type": "function"
    }
  ],
  "bytecode": "0x608060405234801561001057600080fd5b50611717806100206000396000f3fe608060405234801561001057600080fd5b50600436106100885760003560e01c8063442e67e21161005b578063442e67e21461070c5780635a47dc28146108f5578063b2aef16f146109d0578063c2bd2a7614610aca57610088565b80630869cfbc1461008d5780630c20399d1461026a5780632ba6978e146103645780632c76361f14610503575b600080fd5b6100cf600480360360208110156100a357600080fd5b81019080803573ffffffffffffffffffffffffffffffffffffffff169060200190929190505050610ba5565b604051808873ffffffffffffffffffffffffffffffffffffffff1673ffffffffffffffffffffffffffffffffffffffff16815260200180602001806020018060200187815260200186815260200185815260200184810384528a818151815260200191508051906020019080838360005b8381101561015b578082015181840152602081019050610140565b50505050905090810190601f1680156101885780820380516001836020036101000a031916815260200191505b50848103835289818151815260200191508051906020019080838360005b838110156101c15780820151818401526020810190506101a6565b50505050905090810190601f1680156101ee5780820380516001836020036101000a031916815260200191505b50848103825288818151815260200191508051906020019080838360005b8381101561022757808201518184015260208101905061020c565b50505050905090810190601f1680156102545780820380516001836020036101000a031916815260200191505b509a505050505050505050505060405180910390f35b6102b66004803603604081101561028057600080fd5b81019080803573ffffffffffffffffffffffffffffffffffffffff16906020019092919080359060200190929190505050610dcf565b604051808373ffffffffffffffffffffffffffffffffffffffff1673ffffffffffffffffffffffffffffffffffffffff16815260200180602001828103825283818151815260200191508051906020019080838360005b8381101561032857808201518184015260208101905061030d565b50505050905090810190601f1680156103555780820380516001836020036101000a031916815260200191505b50935050505060405180910390f35b6103b06004803603604081101561037a57600080fd5b81019080803573ffffffffffffffffffffffffffffffffffffffff16906020019092919080359060200190929190505050610eb8565b60405180806020018060200180602001848103845287818151815260200191508051906020019080838360005b838110156103f85780820151818401526020810190506103dd565b50505050905090810190601f1680156104255780820380516001836020036101000a031916815260200191505b50848103835286818151815260200191508051906020019080838360005b8381101561045e578082015181840152602081019050610443565b50505050905090810190601f16801561048b5780820380516001836020036101000a031916815260200191505b50848103825285818151815260200191508051906020019080838360005b838110156104c45780820151818401526020810190506104a9565b50505050905090810190601f1680156104f15780820380516001836020036101000a031916815260200191505b50965050505050505060405180910390f35b61070a6004803603608081101561051957600080fd5b81019080803573ffffffffffffffffffffffffffffffffffffffff1690602001909291908035906020019064010000000081111561055657600080fd5b82018360208201111561056857600080fd5b8035906020019184600183028401116401000000008311171561058a57600080fd5b91908080601f016020809104026020016040519081016040528093929190818152602001838380828437600081840152601f19601f820116905080830192505050505050509192919290803590602001906401000000008111156105ed57600080fd5b8201836020820111156105ff57600080fd5b8035906020019184600183028401116401000000008311171561062157600080fd5b91908080601f016020809104026020016040519081016040528093929190818152602001838380828437600081840152601f19601f8201169050808301925050505050505091929192908035906020019064010000000081111561068457600080fd5b82018360208201111561069657600080fd5b803590602001918460018302840111640100000000831117156106b857600080fd5b91908080601f016020809104026020016040519081016040528093929190818152602001838380828437600081840152601f19601f8201169050808301925050505050505091929192905050506110b7565b005b6108f36004803603606081101561072257600080fd5b810190808035906020019064010000000081111561073f57600080fd5b82018360208201111561075157600080fd5b8035906020019184600183028401116401000000008311171561077357600080fd5b91908080601f016020809104026020016040519081016040528093929190818152602001838380828437600081840152601f19601f820116905080830192505050505050509192919290803590602001906401000000008111156107d657600080fd5b8201836020820111156107e857600080fd5b8035906020019184600183028401116401000000008311171561080a57600080fd5b91908080601f016020809104026020016040519081016040528093929190818152602001838380828437600081840152601f19601f8201169050808301925050505050505091929192908035906020019064010000000081111561086d57600080fd5b82018360208201111561087f57600080fd5b803590602001918460018302840111640100000000831117156108a157600080fd5b91908080601f016020809104026020016040519081016040528093929190818152602001838380828437600081840152601f19601f8201169050808301925050505050505091929192905050506111ac565b005b6109ce6004803603604081101561090b57600080fd5b810190808035906020019064010000000081111561092857600080fd5b82018360208201111561093a57600080fd5b8035906020019184600183028401116401000000008311171561095c57600080fd5b91908080601f016020809104026020016040519081016040528093929190818152602001838380828437600081840152601f19601f820116905080830192505050505050509192919290803573ffffffffffffffffffffffffffffffffffffffff1690602001909291905050506112d1565b005b610a1c600480360360408110156109e657600080fd5b81019080803573ffffffffffffffffffffffffffffffffffffffff16906020019092919080359060200190929190505050611412565b604051808373ffffffffffffffffffffffffffffffffffffffff1673ffffffffffffffffffffffffffffffffffffffff16815260200180602001828103825283818151815260200191508051906020019080838360005b83811015610a8e578082015181840152602081019050610a73565b50505050905090810190601f168015610abb5780820380516001836020036101000a031916815260200191505b50935050505060405180910390f35b610ba360048036036040811015610ae057600080fd5b8101908080359060200190640100000000811115610afd57600080fd5b820183602082011115610b0f57600080fd5b80359060200191846001830284011164010000000083111715610b3157600080fd5b91908080601f016020809104026020016040519081016040528093929190818152602001838380828437600081840152601f19601f820116905080830192505050505050509192919290803573ffffffffffffffffffffffffffffffffffffffff1690602001909291905050506114fb565b005b60006020528060005260406000206000915090508060000160009054906101000a900473ffffffffffffffffffffffffffffffffffffffff1690806001018054600181600116156101000203166002900480601f016020809104026020016040519081016040528092919081815260200182805460018160011615610100020316600290048015610c775780601f10610c4c57610100808354040283529160200191610c77565b820191906000526020600020905b815481529060010190602001808311610c5a57829003601f168201915b505050505090806002018054600181600116156101000203166002900480601f016020809104026020016040519081016040528092919081815260200182805460018160011615610100020316600290048015610d155780601f10610cea57610100808354040283529160200191610d15565b820191906000526020600020905b815481529060010190602001808311610cf857829003601f168201915b505050505090806003018054600181600116156101000203166002900480601f016020809104026020016040519081016040528092919081815260200182805460018160011615610100020316600290048015610db35780601f10610d8857610100808354040283529160200191610db3565b820191906000526020600020905b815481529060010190602001808311610d9657829003601f168201915b5050505050908060040154908060050154908060060154905087565b6002602052816000526040600020602052806000526040600020600091509150508060000160009054906101000a900473ffffffffffffffffffffffffffffffffffffffff1690806001018054600181600116156101000203166002900480601f016020809104026020016040519081016040528092919081815260200182805460018160011615610100020316600290048015610eae5780601f10610e8357610100808354040283529160200191610eae565b820191906000526020600020905b815481529060010190602001808311610e9157829003601f168201915b5050505050905082565b600160205281600052604060002060205280600052604060002060009150915050806000018054600181600116156101000203166002900480601f016020809104026020016040519081016040528092919081815260200182805460018160011615610100020316600290048015610f715780601f10610f4657610100808354040283529160200191610f71565b820191906000526020600020905b815481529060010190602001808311610f5457829003601f168201915b505050505090806001018054600181600116156101000203166002900480601f01602080910402602001604051908101604052809291908181526020018280546001816001161561010002031660029004801561100f5780601f10610fe45761010080835404028352916020019161100f565b820191906000526020600020905b815481529060010190602001808311610ff257829003601f168201915b505050505090806002018054600181600116156101000203166002900480601f0160208091040260200160405190810160405280929190818152602001828054600181600116156101000203166002900480156110ad5780601f10611082576101008083540402835291602001916110ad565b820191906000526020600020905b81548152906001019060200180831161109057829003601f168201915b5050505050905083565b60008060003373ffffffffffffffffffffffffffffffffffffffff1673ffffffffffffffffffffffffffffffffffffffff1681526020019081526020016000209050848160000160006101000a81548173ffffffffffffffffffffffffffffffffffffffff021916908373ffffffffffffffffffffffffffffffffffffffff1602179055508381600101908051906020019061115492919061163c565b508281600201908051906020019061116d92919061163c565b508181600301908051906020019061118692919061163c565b506000816004018190555060008160050181905550600081600601819055505050505050565b60008060003373ffffffffffffffffffffffffffffffffffffffff1673ffffffffffffffffffffffffffffffffffffffff1681526020019081526020016000209050604051806060016040528085815260200184815260200183815250600160003373ffffffffffffffffffffffffffffffffffffffff1673ffffffffffffffffffffffffffffffffffffffff168152602001908152602001600020600083600401548152602001908152602001600020600082015181600001908051906020019061127992919061163c565b50602082015181600101908051906020019061129692919061163c565b5060408201518160020190805190602001906112b392919061163c565b50905050806004016000815480929190600101919050555050505050565b60008060003373ffffffffffffffffffffffffffffffffffffffff1673ffffffffffffffffffffffffffffffffffffffff168152602001908152602001600020905060405180604001604052808373ffffffffffffffffffffffffffffffffffffffff16815260200184815250600260003373ffffffffffffffffffffffffffffffffffffffff1673ffffffffffffffffffffffffffffffffffffffff16815260200190815260200160002060008360050154815260200190815260200160002060008201518160000160006101000a81548173ffffffffffffffffffffffffffffffffffffffff021916908373ffffffffffffffffffffffffffffffffffffffff16021790555060208201518160010190805190602001906113f592919061163c565b509050508060050160008154809291906001019190505550505050565b6003602052816000526040600020602052806000526040600020600091509150508060000160009054906101000a900473ffffffffffffffffffffffffffffffffffffffff1690806001018054600181600116156101000203166002900480601f0160208091040260200160405190810160405280929190818152602001828054600181600116156101000203166002900480156114f15780601f106114c6576101008083540402835291602001916114f1565b820191906000526020600020905b8154815290600101906020018083116114d457829003601f168201915b5050505050905082565b60008060003373ffffffffffffffffffffffffffffffffffffffff1673ffffffffffffffffffffffffffffffffffffffff168152602001908152602001600020905060405180604001604052808373ffffffffffffffffffffffffffffffffffffffff16815260200184815250600360003373ffffffffffffffffffffffffffffffffffffffff1673ffffffffffffffffffffffffffffffffffffffff16815260200190815260200160002060008360060154815260200190815260200160002060008201518160000160006101000a81548173ffffffffffffffffffffffffffffffffffffffff021916908373ffffffffffffffffffffffffffffffffffffffff160217905550602082015181600101908051906020019061161f92919061163c565b509050508060060160008154809291906001019190505550505050565b828054600181600116156101000203166002900490600052602060002090601f016020900481019282601f1061167d57805160ff19168380011785556116ab565b828001600101855582156116ab579182015b828111156116aa57825182559160200191906001019061168f565b5b5090506116b891906116bc565b5090565b6116de91905b808211156116da5760008160009055506001016116c2565b5090565b9056fea26469706673582212202aa23bb8a125f659f83d371d12343ccef9500a8db93de0e6bba19009406922eb64736f6c63430006060033",
  "immutableReferences": {},
  "source": "pragma solidity ^0.6.6;\n\ncontract Patient {\n\n    struct patientData {\n        address id;\n        string name;\n        string contact;\n        string email;\n        uint fileCount;\n        uint doctorCount;\n        uint pharmacistCount;\n    }\n\n    struct fileData {\n        string fileName;\n        string fileHash;\n        string datetime;\n    }\n\n    struct doctorData {\n        address doctorAcc;\n        string docName;\n    }\n\n    struct pharmacistData {\n        address pharmacistAcc;\n        string pharName;\n    }\n\n    mapping (address => patientData) public patients;\n    mapping (address => mapping (uint => fileData)) public files;\n    mapping (address => mapping (uint => doctorData)) public doctors;\n    mapping (address => mapping (uint => pharmacistData)) public pharmacists;\n\n    constructor() public {}\n\n    function addPatient(address _id, string memory _name, string memory _contact, string memory _email) public {\n        patientData storage p = patients[msg.sender];\n        p.id = _id;\n        p.name = _name;\n        p.contact = _contact;\n        p.email = _email;\n        p.fileCount = 0;\n        p.doctorCount = 0;\n        p.pharmacistCount = 0;\n    }\n\n    function saveFile(string memory _fname, string memory _fhash, string memory _datetime) public {\n        patientData storage p = patients[msg.sender];\n        files[msg.sender][p.fileCount] = fileData(_fname, _fhash, _datetime);\n        p.fileCount ++;\n    }\n\n    function saveDoctor(string memory _docName, address _doctorAcc) public {\n        patientData storage p = patients[msg.sender];\n        doctors[msg.sender][p.doctorCount] = doctorData(_doctorAcc, _docName);\n        p.doctorCount ++;\n    }\n\n    function savePharmacist(string memory _pharmacistName, address _pharmacistAcc) public {\n        patientData storage p = patients[msg.sender];\n        pharmacists[msg.sender][p.pharmacistCount] = pharmacistData(_pharmacistAcc, _pharmacistName);\n        p.pharmacistCount ++;\n    }\n\n}",
  "sourcePath": "C:/Users/vatsa/Downloads/Medi-Care/blockchain/src/contracts/Patient.sol",
  "compiler": {
    "name": "solc",
    "version": "0.6.6+commit.6c089d02.Emscripten.clang"
  },
  "schemaVersion": "3.3.0",
  "updatedAt": "2020-12-04T06:28:54.051Z",
  "networkType": "ethereum",
  "devdoc": {
    "methods": {}
  },
  "userdoc": {
    "methods": {}
  }
}